:060000000A128A1100291A
:10000800F000030EF1000B191E220C1825228C1883
:1000180040220B184722710E8300F00E700E090063
:1000A0000F3982073F3406345B344F3466346D3485
:1000B0007D3407347F346F3477347C3439345E34A4
:0400C00079347134EA
:10020000EF25CC25E025D325A125AE25BE2503135A
:10021000831208262D14472285120030B0000030CA
:10022000B1000030B2000030B3000030B400003044
:10023000B5000030B7000030B8000030B900003021
:10024000BA000030BB000030BC000030BE000030FF
:10025000BF000030C0000030C1000030C2000030DC
:10026000C3000030C6000030C7000030C8000030B6
:10027000C9000030CA000030CB002E185A21AE1839
:1002800067212E197421AE198121EF222E1A4A29D5
:10029000E7224C2957225A21AE1A5029EB22522923
:1002A000872267212E1B5629F3225829B722742151
:1002B0005D253D293008A7003108A8003208A900B3
:1002C0003308AA003408AB003508AC000800370832
:1002D000A7003808A8003908A9003A08AA003B0876
:1002E000AB003C08AC0008003E08A7003F08A8008F
:1002F0004008A9004108AA004208AB004308AC002E
:1003000008004608A7004708A8004808A9004908AF
:10031000AA004A08AB004B08AC000800061A922954
:10032000AD142D10061997292D162D102F140B1012
:10033000AE012E1405148510051185110512080053
:10034000061AA4292D15AD100619A929AD16AD1050
:100350002F140B10AE01AE14051085140511851174
:1003600005120800061AB629AD152D110619BD296A
:10037000C41ABD292D172D112F148619C429C41A8A
:10038000C329C416C429C4120618CC29441FCC2979
:10039000441385120030C5000B10AE012E15051058
:1003A00085100515851105120800061AD9292D1486
:1003B000AD118619E0294C18DF294C14E0294C10A6
:1003C0000619EB294C18EB290030C600C700C800FD
:1003D000C900CA00CB000B10AE01AE150510851088
:1003E00005118515051208000618F7293614861818
:1003F000FA29B6140619FD29AF0A0B10AE012E1604
:10040000051608000618052A3D148618082ABD148A
:1004100006190B2AAF0A0B10AE01AE16051608001E
:100420000618132A44148618162AC4140619192A01
:10043000AF0A0B10AE012E17051608000313831226
:10044000FE3081000B11702508002E1EB00AC41A60
:10045000BE034C18C60A441F332A8516C50A031169
:100460003D304502031D382A441385120030C50073
:1004700003138312C2308F00F7308E000C10080077
:100480008C10051B452A0517462A051308002D1850
:100490008E29AD18A0292D19B229AD19D5292D1AEB
:1004A000F429AD1A022A2D1B102A0B100800031183
:1004B00001302F02031D642A3618B00A5924361061
:1004C000B618B0036924B610031102302F02031DC1
:1004D000712A3618B20A79243610B618B203892464
:1004E000B610031103302F02031D7E2A3618B40AFA
:1004F00099243610B618B403AF24B6100311043093
:100500002F02031D862A2D142D12AF01080003119E
:1005100001302F02031D942A3D18B70A4A243D10CA
:10052000BD18B7032224BD10031102302F02031D92
:10053000A12A3D18B90A33243D10BD18B9030B2474
:10054000BD10031103302F02031DAE2A3D18BB0A54
:10055000F7223D10BD18BB038123BD1003110430E9
:100560002F02031DB62AAD14AD12AF01080003110E
:1005700001302F02031DC42A4418BE0AC2244410AD
:10058000C418BE03D024C410031102302F02031D6F
:10059000D12A4418C00AE2244410C418C003F0242D
:1005A000C410031103302F02031DDE2A4418C20AAF
:1005B00002254410C418C2031025C41003110430CE
:1005C0002F02031DE62A2D152D13AF010800592413
:1005D000792499240800F72233244A2408002B2583
:1005E0003A2549250800D024F024102508000311DD
:1005F0000A303B02031DFE2ABC0ABB010311003076
:100600003A02031D072B031102303902031D0C2B84
:10061000031102303C02031D112B031109303B0270
:10062000031D182BBB01BC01BB0AAE1EB90A080092
:10063000031104303902031D212B031103303C0246
:10064000031D262B031101303B02031D2D2BBB0183
:10065000BC01BB0AAE1EB90A0800031106303902FC
:10066000031D362B031103303C02031D3B2B0311EA
:1006700001303B02031D422BBB01BC01BB0AAE1E75
:10068000B90A0800031109303902031D4B2B03116D
:1006900003303C02031D502B031101303B02031DAC
:1006A000572BBB01BC01BB0AAE1EB90A08000311DF
:1006B00001303A02031D602B031101303902031D82
:1006C000652B031103303C02031D6A2B031101301B
:1006D0003B02031D712BBB01BC01BB0AAE1EB90A54
:1006E0000800031103303C02031D7A2B0311023072
:1006F0003B02031D0800BB01BC01BB0AAE1EB90AC8
:1007000008000311FF303B02031D892BBC03093095
:10071000BB00031100303A02031D922B031102307B
:100720003902031D972B031100303C02031D9C2B43
:10073000031100303B02031DA22B0230BC00083025
:10074000BB000800031100303A02031DAB2B03115C
:1007500004303902031DB02B031100303C02031D8D
:10076000B52B031100303B02031DBB2B0330BC0033
:100770000030BB000800031106303902031DC42BF2
:10078000031100303C02031DC92B031100303B0252
:10079000031DCF2B0330BC000030BB000800031149
:1007A00009303902031DD82B031100303C02031D10
:1007B000DD2B031100303B02031DE32B0330BC0093
:1007C0000030BB000800031101303A02031DEC2B7E
:1007D000031101303902031DF12B031100303C02DB
:1007E000031DF62B031100303B02031DFC2B0330CD
:1007F000BC000030BB000800031100303C02031DA8
:10080000052C031100303B02031D0A2C0330BC00F1
:100810000130BB0008000311FF303902031D132C07
:10082000BA030930B900031100303902031D080072
:10083000031100303A02031D08000130BA000230F3
:10084000B90008000311FF303702031D0800B80388
:100850000930B7000311FF303802031D08000930CA
:10086000B8000800080003110A303902031D3A2CB1
:10087000BA0AB901031101303A02031D080003113D
:1008800003303902031D0800B9013914BA01AE1E44
:10089000B70A080003110A303702031D0800B80A1E
:1008A000B70103110A303802031D0800B801B7016F
:1008B000080003110A303002031D0800B10AB0011C
:1008C000031106303102031D0800B1012E1EB20AC9
:1008D00008000311FF303002031D0800B103093086
:1008E000B0000311FF303102031D08000530B100D4
:1008F000080003110A303202031D0800B30AB201D6
:10090000031106303302031D0800B3012E1EB40A82
:1009100008000311FF303202031D0800B303093041
:10092000B2000311FF303302031D08000530B3008D
:10093000080003110A303402031DA02CB50AB401CB
:10094000031102303502031D080003110430340284
:10095000031D0800B401B5012E1EBB0A08000311D7
:10096000FF303402031D0800031100303502031963
:10097000BD2C0930B400B50308000330B4000230C8
:10098000B500080003110A303E02031D0800BF0A2B
:10099000BE01031106303F02031D0800BF0108001D
:1009A0000311FF303E02031D0800BF030930BE00E3
:1009B0000311FF303F02031D08000530BF002E1F4A
:1009C000C003080003110A304002031D0800C10AD9
:1009D000C001031106304102031D0800C1010800D7
:1009E0000311FF304002031D0800C1030930C0009D
:1009F0000311FF304102031D08000530C1002E1F06
:100A0000C203080003110A304202031D0800C30A92
:100A1000C20103110A304302031D0800C30108008C
:100A20000311FF304202031D0800C3030930C20056
:100A30000311FF304302031D08000930C3002E1BC1
:100A40002A2DC412BE0AC224C00AE224C20A022508
:100A50004417C412080003110A304602031D08009F
:100A6000C70AC601031106304702031D0800C7016B
:100A7000C80A080003110A304802031D0800C90A09
:100A8000C801031106304902031D0800C901CA0A42
:100A9000080003110A304A02031D502DCB0ACA0177
:100AA000031102304B02031D0800031104304A02F7
:100AB000031D0800CA01CB01080027085020A1002F
:100AC00028085020A20029085020A3002A085020FE
:100AD000A4002B085020A5002C085020A6000800D8
:100AE000880120187D2DA018832D2019892DA0198B
:100AF0008F2D201A952DA01A9B2D210887000814F0
:100B00002010A0140800220887008814A0102015C7
:100B100008002308870008152011A01508002408E4
:100B200087008815A01120160800250887000816E0
:100B30002012A0160800260887008816A01220148C
:100B4000080003138316811281110115811401100D
:100B500003138312FE3081000B110800031383126C
:100B60009010901190161016101310140313831286
:100B7000C2308F00F7308E000C1008000313831270
:100B800092141214121792161216921512150313BC
:100B90008316F43092000800031383160F140F1607
:100BA0008F160F130800031383128B150B100313FA
:100BB0008316161496141615961516169616080012
:100BC000031383128B170B178B160B11031383164A
:100BD0000C148C14031383120C108C1008000317D0
:100BE0008316880189010313831685018701880113
:100BF000FF308600811315149514151595151516DB
:100C00009516031383128501860187018801080068
:100C1000A001A101AD01AE01AF01B601BD01C4014A
:080C20000030C500CC01080002
:04400E00D420FF3F7C
:00000001FF
